:020000040800F2
:10000000B1AA010000000000000000000000000094
:1000100000000000000000000000000000000000E0
:1000200000000000000000000000000000000000D0
:1000300000000000000000000000000000000000C0
:1000400000000000000000000000000000000000B0
:1000500000000000000000000000000000000000A0
:100060000000000000000000000000000000000090
:100070000000000000000000000000000000000080
:100080000000000000000000000000000000000070
:100090000000000000000000000000000000000060
:1000A0000000000000000000000000000000000050
:1000B0000000000000000000000000000000000040
:1000C0000000000000000000000000000000000030
:1000D0000000000000000000000000000000000020
:1000E0000000000000000000000000000000000010
:1000F0000000000000000000000000000000000000
:1001000000000000000000000000000000000000EF
:1001100000000000000000000000000000000000DF
:1001200000000000000000000000000000000000CF
:1001300000000000000000000000000000000000BF
:1001400000000000000000000000000000000000AF
:100150000000000000000000000000007370043088
:10016000170500001305C5FF8545F605637BB5003F
:1001700089816378B500170500001305C5002E9529
:1001800002859302002073A0027D970200009382F3
:1001900062E773907230972200009382E22E739090
:1001A000C27E73E0C07E972200009382A2257390E6
:1001B0005230970100189381E16A178100181301EA
:1001C00061E4174500001305250F97050018938576
:1001D00065E317060018130666E963FAC500832273
:1001E000050023A0550011059105E3EAC5FE17059A
:1001F00000181305A5E79705001893852533637745
:10020000B500232005001105E36DB5FE73F0023241
:10021000174500001305E5E097400000E78040DB4C
:1002200097400000E78060E397100000E7806018C7
:100230000145814597100000E780408C174300007E
:100240006700C3DA01A073E00232828073F00232E9
:0402500082800000A8
:100280000000000000000000010203040607080946
:100290000A50726F6772616D2068617320657869BA
:1002A000746564207769746820636F64653A000040
:1002B000307800006E6D690A000000007472617091
:1002C0000A00000000000000000000000040AF40F5
:1002D000000000000000000000000000000000001E
:1002E00000000008080808080808000018180000A6
:1002F00000486C2412000000000000000000000014
:100300000000002424247F1212127F121212000017
:100310000000081C2A2A0A0C1828282A2A1C080867
:1003200000000022251515152A58545454220000A7
:100330000000000C1212120A76252911916E00009D
:10034000000606040300000000000000000000009A
:10035000004020101008080808080810102040006D
:100360000002040808101010101010080804020001
:100370000000000008086B1C1C6B0808000000004F
:1003800000000000080808087F08080808000000AE
:10039000000000000000000000000000060604034A
:1003A0000000000000000000FE000000000000004F
:1003B0000000000000000000000000000606000031
:1003C00000008040402020101008080404020200B1
:1003D00000000018244242424242424224180000D7
:1003E000000000080E08080808080808083E000079
:1003F0000000003C4242422020100804427E0000DF
:100400000000003C4242201820404042221C0000D4
:10041000000000203028242422227E2020780000A2
:100420000000007E0202021A26404042221C000008
:10043000000000382402021A26424242241800001A
:100440000000007E2222101008080808080800009A
:100450000000003C4242422418244242423C000038
:10046000000000182442424264584040241C00000E
:10047000000000000000181800000000181800001C
:100480000000000000000008000000000008080450
:100490000000004020100804020408102040000062
:1004A0000000000000007F0000007F00000000004E
:1004B0000000000204081020402010080402000080
:1004C0000000003C42424640201010001818000076
:1004D0000000001C225A555555552D42221C000083
:1004E0000000000808181414243C224242E70000CF
:1004F0000000001F2222221E22424242221F000030
:100500000000007C4242010101010142221C000066
:100510000000001F2242424242424242221F00008B
:100520000000003F4212121E12120242423F00001F
:100530000000003F4212121E1212020202070000C7
:100540000000003C2222010101712122221C000036
:10055000000000E7424242427E42424242E700003F
:100560000000003E0808080808080808083E0000C7
:100570000000007C10101010101010101010110F3F
:100580000000007722120A0E0A12122222770000BF
:10059000000000070202020202020202427F000083
:1005A00000000077363636362A2A2A2A2A6B0000BF
:1005B000000000E346464A4A525252626247000037
:1005C0000000001C2241414141414141221C0000E8
:1005D0000000003F424242423E0202020207000087
:1005E0000000001C2241414141414D53321C60003A
:1005F0000000003F4242423E1212222242C7000047
:100600000000007C4242020418204042423E0000AA
:100610000000007F4908080808080808081C0000B6
:10062000000000E74242424242424242423C000055
:10063000000000E742422224241414180808000095
:100640000000006B494949495555362222220000D5
:10065000000000E7422424181818242442E7000070
:10066000000000772222141408080808081C000063
:100670000000007E2120101008040442423F0000C8
:10068000007808080808080808080808080878001A
:100690000000020204040808081010202020404036
:1006A000001E1010101010101010101010101E004E
:1006B00000384400000000000000000000000000BE
:1006C000000000000000000000000000000000FF2B
:1006D000000608000000000000000000000000000C
:1006E000000000000000003C4278444242FC000050
:1006F000000000030202021A26424242261A0000AB
:1007000000000000000000384402020244380000EB
:1007100000000060404040784442424264D80000FB
:10072000000000000000003C427E0202423C00004B
:10073000000000F08808087E08080808083E00004D
:10074000000000000000007C22221C023C42423CCF
:10075000000000030202023A4642424242E7000021
:100760000000000C0C00000E08080808083E0000FD
:100770000000003030000038202020202020221EE1
:100780000000000302020272120A16122277000011
:100790000000000E0808080808080808083E0000C5
:1007A000000000000000007F9292929292B7000039
:1007B000000000000000003B4642424242E70000C9
:1007C000000000000000003C42424242423C000067
:1007D000000000000000001B26424242221E0207C9
:1007E000000000000000007844424242447840E0AB
:1007F00000000000000000774C040404041F000007
:10080000000000000000007C42023C40423E00002C
:10081000000000000008083E080808080830000032
:1008200000000000000000634242424262DC00001F
:1008300000000000000000E7422424140808000023
:1008400000000000000000EB49495555222200003D
:10085000000000000000007624181818246E000024
:1008600000000000000000E74224241418080807D4
:10087000000000000000007E22100808447E0000F6
:1008800000C0202020202010202020202020C00078
:100890001010101010101010101010101010101058
:1008A00000060808080808100808080808080600D4
:1008B0003C3CFF818181818181818181818181FFB6
:1008C0003C3CFF818181818181818181FFFFFFFF2C
:1008D0003C3CFF818181818181FFFFFFFFFFFFFFA2
:1008E0003C3CFF818181FFFFFFFFFFFFFFFFFFFF18
:1008F0003C3CFFFFFFFFFFFFFFFFFFFFFFFFFFFF8E
:100900004F6E20004F66660082220000D221000058
:10091000D8210000D221000074220000D221000062
:10092000D8210000822200008222000074220000F0
:10093000D8210000B8210000B8210000B821000033
:10094000DC2100008826000088260000A026000088
:1009500082260000822600002E270000A02600002C
:10096000822600002E27000082260000A02600001C
:100970008026000080260000802600002E27000030
:10098000FC2D0000262E00004E2E0000262E00001A
:100990009A2E0000262E00004E2E0000FC2D000096
:1009A000FC2D00009A2E00004E2E00000E2E00009E
:1009B0000E2E00000E2E0000522E00007E30000091
:1009C0007E300000963000007A3000007A3000005F
:1009D000DC300000963000007A300000DC3000008F
:1009E0007A30000096300000783000007830000047
:1009F00078300000DC300000000102020303030332
:100A0000040404040404040405050505050505059E
:100A1000050505050505050506060606060606067E
:100A20000606060606060606060606060606060666
:100A3000060606060606060607070707070707074E
:100A40000707070707070707070707070707070736
:100A50000707070707070707070707070707070726
:100A60000707070707070707070707070707070716
:100A700007070707070707070808080808080808FE
:100A800008080808080808080808080808080808E6
:100A900008080808080808080808080808080808D6
:100AA00008080808080808080808080808080808C6
:100AB00008080808080808080808080808080808B6
:100AC00008080808080808080808080808080808A6
:100AD0000808080808080808080808080808080896
:100AE0000808080808080808080808080808080886
:100AF00008080808080808085D711305306086C6F4
:100B0000A2C4A6C24EDE56DA5AD85ED662D466D2E7
:100B1000CAC052DC97000000E780204513055071E1
:100B200097000000E7806044371501409306000CF1
:100B30000D46F145130505C097000000E780E01A57
:100B4000375500401305054097100000E78020C886
:100B5000054597100000E780A0FE97100000E78091
:100B60008000014597100000E78020464808972044
:100B70000000E7808081C16681440144938AF6FFCA
:100B8000130B5009930B1006371C0008938906803D
:100B9000B71C000856878D462286930520032945F9
:100BA00097100000E780405E480897100000E7803B
:100BB000C07DD24585042E8597300000E78060CE49
:100BC000E2452A892E8597300000E78080CDAA85EE
:100BD0004A8597200000E780C06EF2452A892E855D
:100BE00097300000E780E0CBAA854A859720000077
:100BF000E780206D97200000E7802090973000006C
:100C0000E7800022528656879146A9452A892945C0
:100C100097100000E780405713054006970000003A
:100C2000E780007C280097100000E7800076A2454E
:100C30002E8597300000E780C0C6B2452A8A2E85EF
:100C400097300000E780E0C5AA8552859720000014
:100C5000E7802067C2452A8A2E8597300000E7800A
:100C600040C4AA85528597200000E78080659720C0
:100C70000000E780808897300000E780601A9307C3
:100C800025032A8A63C727019307E5FC6343F9001C
:100C9000050463599B0263D38B04CE8613860C90A4
:100CA000F945294597100000E780A04697100000FD
:100CB000E780E0CE1305803E97000000E780407299
:100CC0008144014431462C00480897300000E780F9
:100CD000603F97100000E78080CC6DBD9306007EDA
:100CE00013064C9075BF93F7050193F8F50099C36F
:100CF000B3E8C8008147054EBD4E130F8002930F25
:100D0000800421433316FE00758E1DC21397270001
:100D1000832205003398EE001348F8FF337858001B
:100D20003397E800336707016399E50550C918C197
:100D30008507E39967FC054EBD4E130F8002930FA4
:100D4000800441433316FE00758E05C613972700B5
:100D50000117832245003398EE001348F8FF3378DB
:100D600058003397E80033670701639CE50150C9D9
:100D700058C18507E39867FC8280E39AF5FB10C9A8
:100D80007DB7E397F5FF10C9E5B70CC982804CC960
:100D90008280011122CC2A84094526CA32C606CE99
:100DA000AE8497000000E780C01DB7470F00B7066C
:100DB0003803938707249386F6973357F502324614
:100DC0009307600363E3A600BA87544093F606FCDA
:100DD000DD8E54C0E1669386066A63E1960493074C
:100DE0001700130750036376F700930760031CD0C6
:100DF00029A00947E36DF7FE18D086043355950204
:100E00005C4C11476373E5001145520551815D8DBE
:100E100048CCF2406244D244056182803727060004
:100E2000130707A8636C97041307C012B387E70280
:100E30001307803EB3D7E70285071CD01DE68D4718
:100E4000B384F4025C4C71777D17F98F33559502AA
:100E50005CCC9317450199E3136515005C4C216741
:100E6000D98F5CCC444C458D65B7E547B384F4021B
:100E70005C4C1167D98F33559502D9BF1307800792
:100E8000B387E7021307803EB3D7E70285071CD07C
:100E90000DEA8D45B384B4025C4C71777D17F98FF0
:100EA000335595025CCC5C4C2167D98F5CCC444CAB
:100EB000458D48CC8327040993E717002328F408BD
:100EC00089BFE545B384B4025C4C1167D98F3355B3
:100ED0009502C9BF85476397F5001C4193E707401A
:100EE0001CC182801C4193F7F7BFDDBF795793E7A0
:100EF00015006314E60093F7E5FF1CC982801C41CE
:100F000093E717001CC182801C4193E707101CC1A6
:100F100082801C4193E707201CC182800CC982801B
:100F200008491375F50F828093D7650093F7F73F53
:100F30003E9508413355B5000589828093071050CE
:100F40006395F5005C491C4D828013D765001377CB
:100F5000F73F3A9518418547B397B70093C7F7FF16
:100F6000F98F1CC18280B7170240135765003E9766
:100F700014438547B397A700D58F1CC3828079712E
:100F8000B705000822D441462A849385052808081D
:100F900006D697300000E780E012B7070304938776
:100FA000172002C03EC202C43EC6371702405C434F
:100FB000894689838D8B6397D70E5C439396F700A0
:100FC00063D606065C579396F70063DC06045C570D
:100FD000585791832183BD8B3D8B9386170009075A
:100FE000C5476313F7005147B7177A009387072067
:100FF000B3D7D702B387E7023717024058573D8B64
:10100000050733D7E702B7160240DC42D442C98352
:1010100013962600BD8B6350060293E707018507F0
:101020000DA0B7177A0093870720F9B7B7173D00CF
:1010300013870790C9BFBD46E383D7FE8907638D39
:10104000D704B387E702B7160240D84210101183C5
:101050003D8B3297034507FFD84233D5A700218344
:101060001D8B3297034607FED84214102D831D8B2B
:1010700036978546034787FE630CD40005CC894725
:101080006307F4028D473355E5006303F40001451F
:10109000B2502254456182809947B307F702058315
:1010A000BA9755B7B7177A009387072069BF3355AA
:1010B000C500F9BF3E85E9BF2320050023220500B6
:1010C0002324050023260500232A0500232C0500E0
:1010D00082801C410D6713070704D4417D8F9C411A
:1010E000D58F9445D58FD445D58F9449D58FD44984
:1010F000D58F944DD58FD98F1CC15C4D7D7713074B
:10110000F77FF98F5CCD82801C4193E707041CC1F7
:1011100082804CC582801C410967D98F1CC10CC9D3
:10112000828008456D8D3335A0008280B71702405C
:101130009843B706FFE0B1061367170098C3D8437A
:10114000758FD8C39843B706F7FEFD16758F98C301
:101150009843B706FCFFFD16758F98C3D843B706B2
:1011600001DFFD16758FD8C323A607029843B70683
:10117000F7EAFD16758F98C33707FF0098C79443A9
:101180004167D98E94C39307F7FF37170240144382
:101190001396E60063440600FD17F5FBB7170240FF
:1011A00098439316E70063C3060001A0D843B7062F
:1011B000C4DFFD16D8C3D843D8C3D843136707404C
:1011C000D8C3D843758FD8C3D843B7062920558FC5
:1011D000D8C3D857BD76758FD8D7D857C1669386F0
:1011E00016F1558FD8D79843B7060004558F98C38A
:1011F000B7170240984393164700E3DD06FE984375
:10120000B7060010558F98C3B7170240984393163E
:101210002700E3DD06FE9843B7060001558F98C30B
:10122000B7170240984393166700E3DD06FED843E4
:10123000719BD8C3D84313672700D8C33717024020
:101240005C43A18BF5DF82807971B705000822D459
:101250007D462A84938505290A8506D697300000A5
:10126000E78040E679468A85094597300000E780A7
:10127000C0E6A285094597000000E780E001B705B8
:10128000000805469385052C094597300000E78046
:10129000C0E401A079714ECEAE89B70500080946B9
:1012A0009385052B22D426D24AD052CC56CA06D6D4
:1012B0002A89714497300000E78020E23D4AA54A20
:1012C000F154B3178A00B3F73701B3D7870093F708
:1012D000F70F63ECFA029387070393F7F70F0546BE
:1012E0009305F1004A857114A307F10097300000BF
:1012F000E780A0DEE31794FCB250225492540259C6
:10130000F249624AD24A4561828093877703F1B7F6
:10131000B70700D1D8438843CC43E39DE5FE8280E4
:10132000B70700D223800700A38507001205B7176F
:1013300000D23E9563E3A700828023A00700C10787
:10134000D5BFF327503093F707FC93E7370073902E
:1013500057308280B7050008411115469385452B0B
:10136000054506C697300000E78020D70545970061
:101370000000E780A0ED41119347F5FF22C406C6A7
:10138000139747012A8409E797000000E780C0FC13
:10139000B705000815469385C52B05459730000015
:1013A000E780A0D3228597000000E78020EA411162
:1013B00006C697000000E780A0D7130570059700C8
:1013C0000000E78020F697000000E780C0F7B240F9
:1013D000410117F3FFFF670043E7828079714AD02C
:1013E0004ECE5AC806D622D426D252CC56CA5EC693
:1013F00062C466C22A8B97000000E780A0F1AA8928
:101400002E8997000000E780E0F0AA842E84639480
:10141000A900E308B9FEB707000803A9872C83A930
:10142000C72CB70B002097000000E780A0EEAA872A
:10143000058DB3B7A700818D9D8D97200000E780B3
:10144000E0D12A8A03A50B06AE8A97200000E78028
:1014500080CB4A86CE8697100000E78060202A8CD9
:101460005A85AE8C97200000E780E0C92A86AE86B8
:101470006285E68597100000E780207D2A86AE868B
:101480005285D68597100000E780E071E34D05F89E
:10149000B250225492540259F249624AD24A424B03
:1014A000B24B224C924C4561828079714AD04ECE2B
:1014B0005AC806D622D426D252CC56CA5EC662C4B8
:1014C00066C22A8B97000000E780C0E4AA892E89B3
:1014D00097000000E78000E4AA842E846394A900AA
:1014E000E308B9FEB707000803A9872C83A9C72C16
:1014F000B70B002097000000E780C0E1AA87058DA8
:10150000B3B7A700818D9D8D97200000E78000C5AF
:101510002A8A03A50B06AE8A97200000E780A0BEAA
:101520004A86CE8697100000E78080132A8C5A8561
:10153000AE8C97200000E78000B62A86AE866285D2
:10154000E68597100000E78040702A86AE865285B7
:10155000D68597100000E7800065E34D05F8B2508E
:10156000225492540259F249624AD24A424BB24B37
:10157000224C924C45618280011122CC004126CA46
:101580004AC822854EC652C406CEAE84328A3689F7
:10159000BA8997000000E780609793050050228584
:1015A00097000000E78080986DD986047956A6855B
:1015B000228597000000E780A093930510502285B4
:1015C00097000000E78080966DD993051050228522
:1015D00097000000E780C096930570502285970021
:1015E0000000E780A0946DD9D28522859700000085
:1015F000E780009393057050228597000000E780F4
:10160000E0926DD9228597000000E7802090930535
:101610000050228597000000E78040916DD9054673
:10162000A685228597000000E780808C93051050E6
:10163000228597000000E780608F6DD993051050D8
:10164000228597000000E780A08F854522859700BE
:101650000000E78060888144130AF9FF63C3240314
:10166000228597000000E780008B1C4093F707203D
:10167000EDFFF2406244D2444249B249224A056138
:10168000828063189A008145228597000000E780D8
:10169000A08493056050228597000000E7800089B0
:1016A0006DD9228597000000E780C087B387990035
:1016B0002380A70085045DB7011122CC004126CA12
:1016C0004AC84EC652C406CE2E8AB2843689BA891A
:1016D00093051060228597000000E78020856DF952
:1016E000228597000000E7806082930500502285E4
:1016F00097000000E78080836DD9795693151A0012
:10170000228597F0FFFFE780A07E93051050228589
:1017100097000000E78080816DD9930510502285E5
:1017200097000000E780C08193057050228597F0F4
:10173000FFFFE780A07F6DD9A685228597F0FFFF88
:10174000E780007E93057050228597F0FFFFE780C9
:10175000E07D6DD9814463C32403228597F0FFFFA8
:10176000E780607B1C4093F70720EDFFF240624466
:10177000D2444249B249224A05618280B387990026
:1017800083C50700228597F0FFFFE7806079930506
:101790007050228597F0FFFFE78040796DD985046E
:1017A0005DBFE165411101469385056A22C406C605
:1017B0002A8497F0FFFFE780005E22852244B24032
:1017C000410117F3FFFF6700C373411122C43704BF
:1017D000002006C62324A45097000000E780A0FC48
:1017E000930684502244B24037160008B71500080B
:1017F000371500081306A64A9385856B1305855790
:101800004101171300006700E3A579714AD04ECE5D
:101810005AC806D622D426D252CC56CA5EC662C454
:1018200066C22A8B97000000E780C0AEAA892E8985
:1018300097000000E78000AEAA842E846394A9007C
:10184000E308B9FEB707000803A9872C83A9C72CB2
:10185000B70B002097000000E780C0ABAA87058D7A
:10186000B3B7A700818D9D8D97200000E780008F82
:101870002A8A03A50B06AE8A97200000E780A0887D
:101880004A86CE8697100000E78080DD2A8C5A8534
:10189000AE8C97200000E78000872A86AE8662859E
:1018A000E68597100000E780403A2A86AE8652858A
:1018B000D68597100000E780002FE34D05F8B25061
:1018C000225492540259F249624AD24A424BB24BD4
:1018D000224C924C45618280411122C4B7070020FE
:1018E000370400200327C40683A7070706C626C2BD
:1018F000630AF708374500408945130505809700BE
:101900000000E78040822DC589653715014097F0BA
:10191000FFFFE78000481304C4061440B707002007
:101920001387C7078A06369714431307F00F93846B
:10193000C707A165371501406351D70497F0FFFF32
:10194000E780E0441C4037450040130505801387BD
:1019500017008A07A69783C5070018C097F0FFFFF6
:10196000E780607B1C4013070010B3E7E7021CC050
:10197000B240224492444101828097F0FFFFE78009
:101980004041C9B72244B2409244896537150140AD
:10199000410117F3FFFF6700833F411122C426C2B4
:1019A00006C6B70400203704002003A7C406832717
:1019B00004076317F700B240224492444101828039
:1019C00097000000E78080F1CDB7011122CC26CA34
:1019D0004AC806CE370900209304001037040020BF
:1019E000130609071C428326C406138717003367B2
:1019F00097026301D70293962700B7070020F240B1
:101A000062449387C707B69788C318C2D244424935
:101A1000056182802AC697000000E78020EC3245ED
:101A2000C1B7411122C42A8421851305051006C6B9
:101A300097000000E780A0F91375F40F2244B2402C
:101A400013050510410117030000670043F8011159
:101A500022CC26CA37040020AA841305A00206CE91
:101A600036C22EC61304840632C497000000E780F5
:101A700000F603452400269597000000E780A0FAB1
:101A8000224603452400329597000000E780A0F924
:101A90001305B00297000000E78060F3B2450345EC
:101AA00034002E9597000000E780E0F703453400EE
:101AB0009246369597000000E780E0F66244F240D7
:101AC000D2441305C002056117030000670023F02C
:101AD000797189653715014006D622D497F0FFFF4A
:101AE000E780E02A480097F0FFFFE780205D93073A
:101AF00040103EC28D47374400403ECC9307002043
:101B00003EC84C00A147130504803ECE02C402C665
:101B100002CA97F0FFFFE780005C130504809D4533
:101B200097F0FFFFE780605F1305048097F0FFFFE9
:101B3000E780C05DB25022544561828009E9B70751
:101B4000011A3707002085072324F706828085477E
:101B5000E31EF5FEB707001837070020938717101C
:101B6000E5B7B707002003C78706411122C406C6A0
:101B70001384870611E7014597000000E78040FCC9
:101B80001305306097F0FFFFE780203E13054060AB
:101B900097F0FFFFE780603D1305006097F0FFFFBF
:101BA000E780A03C1305E07097F0FFFFE780E03B83
:101BB00037150140B9660D46E145130505C097F09C
:101BC000FFFFE7808012A9660D46C1453715014029
:101BD00097F0FFFFE780601197000000E78080EF3B
:101BE000A9653715014097F0FFFFE780801A97003D
:101BF0000000E780C0DA1305400697000000E78088
:101C000000C1054597000000E78060DC97000000F8
:101C1000E780E0D81305800797000000E78020BF29
:101C2000454597000000E78080DA97000000E780D4
:101C300000D71305400697000000E78040BD8347AA
:101C400014001305200299E3130510029700000009
:101C5000E780E0D71305100B97000000E78020D73E
:101C60001305501097000000E78060D61305A013FD
:101C700097000000E780A0D51305A013970000008F
:101C8000E780E0D41305200B97000000E78020D404
:101C90001305501097000000E78060D31305A013D0
:101CA00097000000E780A0D21305A0139700000062
:101CB000E780E0D11305300B97000000E78020D1CA
:101CC0001305501097000000E78060D01305A013A3
:101CD00097000000E780A0CF1305A0139700000035
:101CE000E780E0CE1305501097000000E78020CE7B
:101CF0001305A01397000000E78060CD1305A01323
:101D000097000000E780A0CC1305400B970000006F
:101D1000E780E0CB1305301097000000E78020CB70
:101D20001305000C97000000E78060CA1305201619
:101D300097000000E780A0C913052010970000005D
:101D4000E780E0C81305401097000000E78020C836
:101D50001305100C97000000E78060C71305001CF6
:101D600097000000E780A0C61305200C9700000034
:101D7000E780E0C51305D01097000000E78020C57C
:101D80001305001097000000E78060C41305300CB5
:101D900097000000E780A0C31305D018970000004B
:101DA000E780E0C21305A01697000000E78020C27C
:101DB0001305400C97000000E78060C11305D018A0
:101DC00097000000E780A0C01305E01E9700000008
:101DD000E780E0BF1305500C97000000E78020BFAC
:101DE0001305E01097000000E78060BE1305000EA9
:101DF00097000000E780A0BD1305001197000000C8
:101E0000E780E0BC1305E01097000000E78020BCED
:101E10001305201097000000E78060BB1305301009
:101E200097000000E780A0BA1305E01097000000BB
:101E3000E780E0B91305701097000000E78020B933
:101E40001305201097000000E78060B8130570109C
:101E500097000000E780A0B71305A01097000000CE
:101E6000E780E0B61305201197000000E78020B658
:101E70001305701297000000E78060B5130570131A
:101E800097000000E780A0B4130500109700000041
:101E9000E780E0B31305D01097000000E78020B37F
:101EA0001305E01097000000E78060B213050011F1
:101EB00097000000E780A0B11305100E9700000006
:101EC000E780E0B01305001197000000E78020B024
:101ED0001305E01097000000E78060AF1305301095
:101EE00097000000E780A0AE1305301097000000B7
:101EF000E780E0AD1305F01097000000E78020AD0B
:101F00001305601097000000E78060AC13052010F7
:101F100097000000E780A0AB130580109700000039
:101F2000E780E0AA1305A01097000000E78020AA30
:101F30001305301197000000E78060A913056012B7
:101F400097000000E780A0A8130560139700000029
:101F5000E780E0A71305001097000000E78020A7A6
:101F60001305D01097000000E78060A61305E0106D
:101F700097000000E780A0A513050011970000005E
:101F8000E780E0A41305A00397000000E78020A4E9
:101F90001305501097000000E78060A3130560034D
:101FA00097000000E780A0A21305801797000000AB
:101FB000E780E0A12244B2401305900241011703DB
:101FC00000006700C3A041114AC09306F0042A89AB
:101FD0001306F0098145014526C206C622C49304B2
:101FE000000A97000000E780C0A6130400054A8598
:101FF0007D1497000000E78000A375F8FD14F5F448
:10200000B24022449244024941018280411122C4DB
:10201000AE8632842A8606C697000000E78060A359
:1020200022852244B2404101170300006700A39FAC
:102030009307800963ECA70C797122D406D626D2C7
:102040004AD04ECE52CC56CA5AC85EC69307000438
:102050002E8463E6B706B284811493F4F40FB68A33
:10206000130675009386F50013994400B704000821
:10207000AA893A8A9384042D97000000E780609D26
:10208000639A0A048149B70B0020414BB307390119
:10209000A69783CA0700214493F71A00528599E353
:1020A00003A5CB507D141374F40F97000000E78054
:1020B000809793DA1A006DF08509E39969FDB250B3
:1020C000225492540259F249624AD24A424BB24BCC
:1020D00045618280CA94130B0401A14B83CA04009A
:1020E000014993F71A0089CB5286A28533852901CD
:1020F00097000000E780C0F1050993DA1A00E312A7
:1021000079FF05048504E31B64FD55BF828001113E
:102110004EC6C16922CC26CA4AC852C456C25AC049
:1021200006CE2A84AE843289368A930A8009130B3C
:102130000004938909808347090099EBF2406244C7
:10214000D2444249B249224A924A024B05618280F6
:1021500063F48A00C104014463799B004E859700B3
:102160000000E78080E6814401440346090022859F
:1021700052878146A68597000000E780A0EB2104E6
:10218000050955BF797156CA938AF6FF22D426D223
:102190004AD04ECE52CC5AC85EC662C466C206D67B
:1021A000AA8BAE89328C3A8A13F4FA0F814C01491A
:1021B0009304F00F294B63129406B25022549254A8
:1021C0000259F249624AD24A424BB24B224C924CDB
:1021D00045618280B38767037D171377F70FE31B91
:1021E00097FE13953C005E95B357FC02B3F7670367
:1021F00013F6F70F6317090263D55C0395E3528763
:10220000814613060002CE857D1497000000E7800A
:1022100060E2850C1374F40F79BF228785476DBF88
:1022200005495287814613060603F1BFB707002010
:1022300093870751328703A307002A86C847AE86D3
:10224000930590060283B7070020938707513287D2
:1022500003A347002A86C847AE86930590060283EB
:10226000011122CC370400209307045106CE88C305
:10227000CCC390C71305500730008545D4C79700DD
:102280000000E780E0FA03478100C5477D55631FE2
:10229000F70C930700F81305B00670008545230678
:1022A000F1001304045197000000E78000FA1C4479
:1022B0001305400682978307810063CD070A1C44FB
:1022C0001305400609448297A5477000854513050C
:1022D000B0062306F10097000000E78000F77000C9
:1022E000854565452306010097000000E780E0F57D
:1022F0007000854569452306810097000000E7804E
:10230000C0F4E147700085456D452306F100970054
:102310000000E78080F3C1477000854571452306C2
:10232000F10097000000E78040F270008545754598
:102330002306810097000000E78020F19307200327
:1023400070008545130570032306F1009700000017
:10235000E780A0EF854713058003700085452306BD
:10236000F10097000000E78040EE0545F24062442E
:1023700005618280300085451305B0069700000096
:10238000E78000EB0DBF011122CC30002A84994573
:102390001305B00306CE97000000E78060E98317BD
:1023A0008100A303F100A1832303F1000315610061
:1023B00097200000E780C0AC8317A10008C0A303EA
:1023C000F100A1832303F1000315610097200000B1
:1023D000E78000AB8317C10048C0A303F100A183CD
:1023E0002303F1000315610097200000E78040A956
:1023F00008C4F24062440545056182800000000087
:102400005D7106C012C216C41AC61EC82ACA2ECCD6
:1024100032CE36D03AD23ED442D646D872DA76DCC4
:102420007ADEFEC0F322103496C0F322003096C24A
:10243000F322407C96C4732520348A8597F0FFFFF1
:10244000E780A0F386427390123496427390023074
:10245000A6427390427C82401242A2423243C2435F
:102460005245E245724682561257A2573258C25818
:10247000525EE25E725F864F616173002030000041
:10248000000000005D7106C012C216C41AC61EC844
:102490002ACA2ECC32CE36D03AD23ED442D646D8F4
:1024A00072DA76DC7ADEFEC073D0E87E7350F97E95
:1024B00073D0B97EF390D07E73700430B6427390BF
:1024C000427CA6427390123496427390223482402A
:1024D0001242A2423243C2435245E24572468256FC
:1024E0001257A2573258C258525EE25E725F864F50
:1024F000616173002030411122C426C206C62A84BD
:1025000097000000E780000797E7FF179387C7B69B
:102510009843FD57AA846302F702A285228597207B
:102520000000E780A08C11E9930500002285971038
:102530000000E780802F63480500B24022442685D2
:1025400092444101828097200000E78060A99307B0
:102550001002930500001CC12E8597100000E78033
:102560006007B2402244AA842685924441018280B9
:1025700041119317150022C406C685833707807F53
:102580002A84AA8563F8E708C9C3AA876346050AAF
:10259000698F9356754105E3370780003374A700B0
:1025A00019C055A83A8486071396870013071400AC
:1025B000E35A06FE818E370780001306F7FFF18F7E
:1025C000938616F85D8F13F616009317170035E201
:1025D00013D816400145E54681453707000133868B
:1025E000E500FD1663C6C700B305E600918F3A9576
:1025F00086070583EDF699C3050579990585B70525
:10260000003FAA9593167801B695B24022442E85D4
:102610004101828097100000E780A028A2859710D2
:102620000000E78000CAB2402244AA852E854101FD
:1026300082809317270069BF97100000E780E04869
:10264000AA8597100000E780E0F8B2402244AA85EE
:102650002E85410182807D54818EB1BF797113D85E
:10266000450126D24ECE52CC5AC85EC69394C500C0
:1026700006D622D44AD056CA1378F87F2A8BB28B5A
:10268000368AB18093D9F501630408089307F07F77
:10269000630EF80C935AD5018E04B3E49A00B70A7E
:1026A0008000B3EA540113143500130918C0014B1C
:1026B00013554A019314CA001378F57FB180135A59
:1026C000FA016308080C9307F07F6301F812139571
:1026D000340093D7DB015D8DB7048000C98C139F54
:1026E0003B00130518C0814713172B005D8F7D1722
:1026F000B94633C649013308A94063EBE61097E6B3
:10270000FFFF9386A6200A0736971843369702875D
:10271000B3EAA40063860A068DCC268597200000C4
:10272000E7804087930755FF7147634BF702F54AEF
:10273000130485FFB38AFA40B3948400B35A5B0153
:10274000B3EA9A0033148B001308D0C03309A840B1
:10275000B9BF97200000E780E08313050502D9B7D1
:10276000930485FDB31A9B000144F9BFB3EAA400AA
:10277000638C0A002A84A68A1309F07F0D4B0DBFD3
:1027800001440149054B2DB701441309F07F094B62
:1027900005B733EF740163040F069DC826859710B3
:1027A0000000E780207F930755FF7147634AF702D7
:1027B0007547130F85FF1D8FB394E40133D7EB00EA
:1027C000D98C339FEB011306D0C03305A64021BF3F
:1027D0005E8597100000E780E07B13050502E1B7F6
:1027E000930485FDB3949B00014FF1BF33EF740157
:1027F000630B0F005E8F1305F07F8D47F5B58144A5
:1028000001458547D5B581441305F07F8947E9BD6A
:1028100063E6540163939A2A6361E42B9396FA0169
:10282000135714009317F40193DA1A0033E4E60007
:102830001395840093548F01458D135E0501B3D821
:10284000CA0313130501135303011357040193150E
:102850008F00B3F4CA03C68FB3061303939A04011F
:1028600033675701637CD7002A97938FF8FF63671C
:10287000A7006375D700938FE8FF2A97158FB35E83
:10288000C703420441803377C703F686B308D303F6
:102890004207418F637C17012A979386FEFF636787
:1028A000A700637517019386EEFF2A97C20FB3EF57
:1028B000DF00C166330417419388F6FF13DF0F0171
:1028C00033F71F0193DE0501B3F81501B3031703B6
:1028D000B3041F033387EE02B302DF03330F970005
:1028E00013D703017A9763739700B692135F0701BA
:1028F000169FC162FD12B3765700C206B3F35300B0
:102900009E966367E401FE84631EE40363FCD702C2
:10291000AE9733B7B7002A973A949384FFFF636664
:1029200085006311850263EFB7006366E401631BF2
:102930008F0063F9D700AE9733B7B7002A97938417
:10294000EFFF3A94B386D7403304E441B3B7D700DE
:102950001D8C7D5F6305850E335FC40313D70601AD
:102960003374C403B307E3034204598C7A87637C4E
:10297000F4002A941307FFFF6367A4006375F40053
:102980001307EFFF2A941D8C335FC403C206C18274
:102990003374C403FA873303E3034204558C637C26
:1029A00064002A949307FFFF6367A40063756400C3
:1029B0009307EFFF2A9442075D8F93170701C183A6
:1029C0003304644013530701338E1703B308130312
:1029D00033836E02B38EFE0293570E01C69EF697A6
:1029E00063F41701C166369393D807019A9841633F
:1029F0007D13B3F66700C206337E6E00F2966366FF
:102A00001401631E14193A8F9DCA2A94130FF7FFFD
:102A10006361A402636614016312141963FDD50097
:102A200093971500B3B5B7002E95130FE7FF2A94BF
:102A3000BE85631414016384B600136F1F0013076F
:102A4000F83F6357E00A93777F0081CF9377FF00C9
:102A500091466388D70093064F0033BFE601FA948E
:102A6000368F9397740063D80700B70700FFFD17F0
:102A7000FD8C130708409307E07F63C8E710135FDE
:102A80003F009397D401B3E7E70113D53400320533
:102A90001377F77F5207B25022543181598D7E0649
:102AA0003367C50092540259F249624AD24A424BF6
:102AB000B24B3E85BA85456182807D1881478DBBCA
:102AC0004E86D684228FDA8709476380E70C0D474C
:102AD0006386E70A0547E394E7F60145814785A841
:102AE0005286DDB7B7040800014F01468D47E9BFA4
:102AF0000545198D93078003E3C1A7FEFD4763CA0F
:102B0000A7041308E841B39704013357AF00331803
:102B10000F01D98F33380001B3E7070133D5A40083
:102B200013F7770001CF13F7F70091466308D7003A
:102B300013874700B337F7003E95BA871317850010
:102B4000634A07041317D5018D83D98F0D8101477F
:102B50003DBF8557998F93060002B3D7F400014714
:102B60006306D5001308E84333970401336FE70188
:102B7000333FE001B3E7E70101455DB737050800E2
:102B800081471307F07F014619B7014581471307B5
:102B9000F07FF5BD014581470547D5BD7A873A8F5E
:102BA00069BD13D84501B7071000FD1713D74601BB
:102BB0001378F87F930EF07FB3F8B7002A83F58F70
:102BC000FD81328E1377F77FFD826318D801B3EE53
:102BD000A80063850E0689450DA86316D701B3EEDC
:102BE000C700E39A0EFE631D080433E5A800133501
:102BF000150019E35D8E15CE11E5638AD50085C9F0
:102C0000FD5521A0FD5591C2B6852E858280E348F1
:102C100007FF6354E800F5F9E5B7E3E217FF639CAB
:102C2000F800E36E6EFCE368C3FF8145F9BF85459C
:102C3000E9BF65FDE9B7E3E0F8FEC5BFE30107FBC7
:102C40004DFF014545BF79714ECE93D9450122D440
:102C500026D252CC56CA5AC89394C50006D64AD03A
:102C60005EC693F9F97F2A84328BB68AB18013DA73
:102C7000F501638109089307F07F6389F90C935785
:102C8000D5018E04DD8CB7078000DD8C131935006B
:102C9000938919C0814B13D54A011394CA00137547
:102CA000F57F318093DAFA0161C59307F07F630DF8
:102CB000F5109357DB010E045D8CB70780005D8C27
:102CC000130515C093173B00014793962B00D98E2F
:102CD0004E95FD16B94533465A011308150063E6B3
:102CE000D51097E5FFFF938525C68A06AE969442D8
:102CF000AE96828633E9A400630309069DC8268543
:102D000097100000E7800029130755FFF14763C9BA
:102D1000E702F547130985FF998FB3942401B35750
:102D2000F400DD8C331924019309D0C0B389A94084
:102D300095B797100000E780E02513050502E9B775
:102D4000930485FDB31494000149F9BF33E9A4004D
:102D5000630B09002A899309F07F8D4B2DBF8144B5
:102D60008149854B0DBF81449309F07F894B25B77D
:102D7000B3676401B5C31DC8228597100000E780C2
:102D80006021930655FFF14763CAD7027547930741
:102D900085FF158F3314F4003357EB00598CB317AC
:102DA000FB001307D0C03305A74039BF5A859710E1
:102DB0000000E780201E13050502E1B7130485FD1E
:102DC00033148B008147F1BFB367640191CBDA877D
:102DD0001305F07F0D47D5BD014401450547F5B505
:102DE00001441305F07F0947CDB5416F930EFFFFF6
:102DF0001357090193D807013379D901B3F7D701E4
:102E0000B3852803B3862703B30FF7023383F50195
:102E100093D506019A95330E170363F3F5017A9E55
:102E200093D30501B3F5D501B3F6D601135F0401C1
:102E3000B372D401C205B695B30E5702B38622030E
:102E400033092F033303D90113D906011A99330724
:102E5000E7036374D90141631A97935E0901C1695D
:102E6000BA9E1387F9FF3379E900F98E13D4040170
:102E70004209F98C369933879702CA933303F402D7
:102E8000B3869802B3878802B38866009356070119
:102E9000C69663F36600CE9793D80601C169B38FD7
:102EA000F8009387F9FFFD8E7D8FB3889202C206EA
:102EB000BA96B3075402B3049F0233038F02BE9441
:102EC00013D40801A29463F3F4004E93C167FD1775
:102ED00033F7F400B3F8F80042071E9E46973339E3
:102EE0002E01769733042701369EB336DE00B308F1
:102EF000F401338FD8003337D70133342401598C90
:102F0000C180B3B8F801B336DF002694B3E6D80029
:102F100036941A9493577F0126045D8C93179E0074
:102F2000CD8FB337F000135E7E0113179F00B3E718
:102F3000C701D98F131774006358070A13D71700F6
:102F4000858BD98F1317F401D98F05809306F83F2D
:102F5000635ED00813F7770001CF13F7F7009145B0
:102F60006308B70013874700B337F7003E94BA876A
:102F70001317740063580700370700FF7D17798C1B
:102F8000930608401307E07F634CD70E13D7370032
:102F90009317D401D98F0D80320413F7F67F5207AF
:102FA0003180598C7E063367C400B250225492544B
:102FB0000259F249624AD24A424BB24B3E85BA8527
:102FC0004561828052862684CA875E878946630966
:102FD000D70A8D46630FD7088546E319D7F6014413
:102FE00081479DA05686DDB72A888DB78545958D8A
:102FF00013078003E345B7FE7D476349B704130811
:10300000E84133170401B3D6B700B3970701558FD2
:10301000B337F000D98F3354B40013F7770001CFE2
:1030200013F7F70091466308D70013874700B337BB
:10303000F7003E94BA8713178400634807041317F8
:10304000D4018D83D98F0D808146B9B70557158F6F
:10305000130500023357E40081466386A500130878
:10306000E843B3160401D58FB337F000D98F01447C
:103070006DB73704080081479306F07F014629BFEA
:10308000014481479306F07F01BF01448147854693
:1030900021B7411106C622C426C22DC19357F5415E
:1030A00033C4A7001D8C9354F501228597100000AE
:1030B000E78040EE1307E041A947098F63CAA702E2
:1030C000AD47898F5505B357F4003314A400268506
:1030D000B2071377F77F5207B1837E05D98F33E7A5
:1030E000A700B240228522449244BA8541018280E1
:1030F0005515B317A40026850144D9BF0147814760
:10310000E5BF411122C406C62A8421C597100000DC
:10311000E78040E81307E041A947098F63C6A7028B
:10312000AD47898F5505B357F4003314A4002285A9
:10313000B2402244B2071377F77F5207B183B3E658
:10314000E700B685410182805515B317A4000144FC
:10315000F9BF81470147E1BF011106CE22CC26CA43
:103160004AC84EC652C4B367B500638607142A84A2
:103170002E89AE84BDC52E8597100000E78080E1C2
:10318000AA89130AE043330A3A419307304363C7DD
:103190004707AD47228563D337039307A00263C96E
:1031A00037059305B002938759FFB3853541B35571
:1031B000B400B314F900CD8C3315F4009395C4001A
:1031C000F2406244137AFA7F520AB181B3E74501B3
:1031D0002A87D2444249B249224A3A85BE850561CE
:1031E000828097100000E780E0DA9309050251BF62
:1031F000938559FDB314B4000145C9B793076043E3
:1032000063D94703138689032285CA859710000076
:10321000E780A0D5C98D2146B334B0002285CA8588
:103220003306364197100000E78080D133E4A400D4
:103230002E89A147228563D437039307700263C6A2
:10324000370793058002938789FFB385354133198A
:10325000F900B355B40033E925013315F400B7077D
:1032600080FFFD17B375F9009377750081CF9377D1
:10327000F50011476388E7009307450033B5A700C1
:10328000AA953E859397850063DA0700B70780FF0C
:10329000FD17130AF043FD8D330A3A410D819397D0
:1032A000D5015D8D93D4350011BF138989FD331984
:1032B000240101456DB781440145014A01B7370733
:1032C000800041117D17B377A70026C24AC09354EE
:1032D000F5011359750113D575016D8F1379F90F28
:1032E0001375F50F06C622C4FD818E070E07B306BF
:1032F000A9406392B412635AD00621E1630B0726FA
:10330000FD168DE6BA974A85139757006359070C47
:1033100005051307F00F6304E5263707007E93F6D3
:1033200017007D178583F98FD58F55A81306F00FE9
:10333000631CC9001305F00F5DA01306F00FE30B2B
:10334000C9FE37060004518F6D466354D600054709
:1033500055BF13060002B355D700B306D640331746
:10336000D7003337E0004D8F71BFB9C63306254112
:10337000631D090089CB7D1619E2BA9771B79306D0
:10338000F00F631BD500BA8799A89306F00FE30CE2
:10339000D5FEB7060004D58FED4663D4C600854739
:1033A000E9BF93060002918EB3D5C700B397D7004B
:1033B000B337F000CD8FD1B79306190013F5E60FA0
:1033C00039E163190902E1D319CBBA971397570072
:1033D00063570700370700FC7D17F98F054513F782
:1033E0007700630F071813F7F7009146630AD718A1
:1033F000910779A26381071815DF8144B70700029E
:103400001305F00FB5AA1306F00F6388C616BA9716
:1034100085833685E9B76355D0061DE94A8561D3B2
:10342000FD1681EE998F13975700E35A07FA370478
:1034300000047D147D8C2A89C5A81306F00F13059E
:10344000F00FE30EC9F86D46635ED600054735A060
:103450001306F00F1305F00FE303C9F83706000455
:10346000518FD5B713060002B355D700B306D64027
:103470003317D7003337E0004D8F998F4A8565B7F2
:10348000B9CA330625416310090299CB7D1609E6B6
:10349000B307F740AE8441BF9306F00F631CD5001D
:1034A000BA87AE842DBF9306F00FE30BD5FEB706A7
:1034B0000004D58FED4663D4C6008547D1BF93067F
:1034C0000002918E33D8C700B397D700B337F0000E
:1034D000B367F80075BF130519001375E50F05ED07
:1034E0006314090289E74DFF8147814451A8E3082D
:1034F00007EEB386E74013965600B307F740E34262
:1035000006FAFDD2B687E1BDE39807EEE30707EEC2
:10351000BA87AE8405B53384E7409316540063DF61
:1035200006023304F740AE84228597100000E7803E
:1035300060A66D153314A4006346250333052541A9
:10354000050513070002B357A4003305A740331441
:10355000A40033348000C18F014551B571F4814717
:10356000014561B7B70700FCFD173305A940E18F9E
:10357000BDB54A85ADB5BA8775BB1305F00F814758
:1035800013975700635B070005051307F00F630FE0
:10359000E502370700FC7D17F98F1307F00F8D83C5
:1035A0006316E50081C7B707400081441375F50F26
:1035B000B2402244A6071317750113D59700FE04E5
:1035C000598D458D02499244410182808147F1B76E
:1035D000011126CA935475014AC84EC652C49319A4
:1035E000950006CE22CC56C293F4F40F2E8A93D9BE
:1035F00099001359F501B5C49307F00F6382F408DD
:103600008E09B7070004B3E9F900938414F8814ADE
:1036100013557A0113149A001375F50F2580135A68
:10362000FA012DC99307F00F6305F5080E04B707DB
:1036300000045D8C130515F8814793962A00DD8EF2
:10364000FD163947334649013385A440636CD706DC
:1036500097D5FFFF938505338A06AE9698422E973D
:103660000287638609024E8597100000E7808092EA
:103670009307B5FF9304A0F8B399F900898C41BF73
:103680009304F00F894AE38509F88D4A51B78144C4
:10369000854ABDBF0DC4228597100000E780808F4A
:1036A0009307B5FF3314F4009307A0F83385A740C0
:1036B00061B71305F00F894749D08D47BDBF01455C
:1036C0008547A5BF1318540063FE890A7D158146FE
:1036D0001354080133D38902C167FD17B377F8008B
:1036E000C18233F789029A85B38867024207558FF2
:1036F000637C170142979305F3FF636707016375C6
:1037000017019305E3FF429733071741B358870228
:1037100033778702B386170393170701468763FC45
:10372000D700C2971387F8FF63E7070163F5D70057
:103730001387E8FFC29713940501958F598CB3370F
:10374000F0005D8C1307F507635AE0089377740067
:1037500099C79377F40091466383D70011049317B8
:10376000440063D80700B70700F8FD177D8C1307E6
:1037700005089307E00F0D8063D9E70201441307A2
:10378000F00F25A09396F90193D9190091B74A86B5
:103790004E84D6870947E383E7FE0D47638FE7062C
:1037A0000547E391E7FA0144014726041377F70F31
:1037B0005E072580598C1315F601418DF240624455
:1037C000D2444249B249224A924A056182805286D5
:1037D000D1B73704400001468D476DBF8547998FAB
:1037E0006D47E342F7FC1305E509B357F4003314C2
:1037F000A400333480005D8C9377740099C793776D
:10380000F40011476383E7001104931754000D80FF
:10381000E3DC07F80144054749BF370440001307BC
:10382000F00F014659B793567501B7078000FD1791
:1038300013D7750193F6F60F1308F00F33F6A700B0
:103840001377F70FED8F7D81FD816395060139C2F6
:103850000945828063130701E5FF9DEE11E38DCBDF
:1038600001CA6314B5006359D7000DC17D5582802C
:103870007D5591C52E85828063D4E60065D982800E
:10388000E3E5C7FEE36CF6FE0145828005458280D4
:1038900065DEE1BFE302D7FC69F7E1DBD9B70111CF
:1038A0004AC81359750126CA4EC656C293149500CC
:1038B00006CE22CC52C41379F90FAE8AA580935953
:1038C000F501630709069307F00F6302F9088E04F8
:1038D000B7070004DD8C130919F8014A13D57A01E2
:1038E00013949A001375F50F258093DAFA012DC908
:1038F0009307F00F6305F5080E04B70700045D8C0D
:10390000130515F8814713172A005D8F4A957D1717
:10391000B945B3C659011306150063EBE50697D503
:10392000FFFF9385E5090A072E9718432E97028714
:103930008DC4268597000000E780C0659307B5FF1A
:103940001309A0F8B394F4003309A94079B7130917
:10395000F00F094AC1D40D4A51B70149054ABDBF0C
:103960000DC4228597000000E780C0629307B5FF71
:103970003314F4009307A0F83385A74061B713050B
:10398000F00F894749D08D47BDBF01458547A5BF89
:10399000C1671383F7FF13D7040193550401B3F4F0
:1039A000640033746400B3888402330887023304EC
:1039B000B702B385950293D40801C295AE9463F320
:1039C00004013E94B3F76400C207B3F86800C697D9
:1039D00013976700C1803337E000E9832694D98FBD
:1039E0001A045D8C9317440063D70706935714009D
:1039F00005885D8C1307F6076351E0069377740022
:103A000099C79377F40091456383B7001104931726
:103A1000440063D80700B70700F8FD177D8C130733
:103A200006089307E00F0D8063DDE70601441307E6
:103A3000F00F85A8CE862684D2870947E388E7FE63
:103A40000D47638BE7040547E396E7FA0144014716
:103A500089A8D686DDB72A8671BF8547998F6D47BD
:103A6000E346F7FE1306E609B357F4003314C40027
:103A7000333480005D8C9377740099C79377F4009A
:103A800011476383E7001104931754000D80E3D0BE
:103A900007FC0144054731A0370440001307F00F2D
:103AA000814626041377F70F5E072580598C1395FE
:103AB000F601418DF2406244D2444249B249224A61
:103AC000924A056182803707800041117D17935625
:103AD000750113D87501B377A70026C26D8F4AC050
:103AE00093F6F60F1378F80F06C622C41306F00FEC
:103AF0009354F50136898E074285FD810E076313C5
:103B0000C80019E393C5150033860641639D9510DF
:103B1000635BC00663110804630707267D160DE684
:103B2000BA973685139757006359070C0505130795
:103B3000F00F6300E5263707007E93F617007D1728
:103B40008583F98FD58F55A89305F00F639CB60038
:103B50001305F00F5DA09305F00FE38BB6FEB705DC
:103B600000044D8FED4563D4C500054755BF93054F
:103B700000023355C7003386C5403317C7003337BB
:103B8000E000498F71BF39C63306D84089EE638E95
:103B9000071E7D1619E2BA9771B79306F00F631BE3
:103BA000D800BA8775B79306F00FE30CD8FEB706B6
:103BB0000004D58FED4663D4C6008547E9BF930660
:103BC0000002918EB3D5C700B397D700B337F0008A
:103BD000CD8FD1B7138616001375E60F0DED8DEA64
:103BE0006385071A19CBBA971397570063570700D5
:103BF000370700FC7D17F98F054513F77700630B36
:103C0000071813F7F70091466306D718910759A2D2
:103C1000C9DB1DDF29A29306F00F630AD616BA97F7
:103C200085833285D9BF6356C006631C080236857A
:103C300069D77D1601EE998F13975700E35F07FA56
:103C4000370400047D147D8C2A89CDA89305F00FDC
:103C50001305F00FE383B6FAED4563DEC5000547B3
:103C600035A09305F00F1305F00FE388B6F8B705FC
:103C700000044D8FD5B7930500023355C700338636
:103C8000C5403317C7003337E000498F998F368519
:103C900065B731CA3306D84099EEB1CF7D1609E633
:103CA000B307F740AE8449BF9306F00F631CD800FA
:103CB000BA87AE8471BD9306F00FE30BD8FEB7064A
:103CC0000004D58FED4663D4C6008547D1BF930667
:103CD0000002918E33D8C700B397D700B337F000F6
:103CE000B367F80075BF138516001375E50F15ED62
:103CF00085E681E719CFBA8711A801D3B386E740DB
:103D00001396560063560600B307F740AE84F5B528
:103D1000E1EA81478144BDA8E39D07EE51FB814460
:103D2000B70700021305F00FB5A03384E7409316E0
:103D3000540063DF06023304F740AE842285970007
:103D40000000E78020256D153314A4006346250389
:103D500033052541050513070002B357A4003305B9
:103D6000A7403314A40033348000C18F014571B5DE
:103D700071F48147014579BFB70700FCFD17330592
:103D8000A940E18F9DBD36858DBDBA87BDB51305B0
:103D9000F00F814713975700635B07000505130772
:103DA000F00F6301E504370700FC7D17F98F130757
:103DB000F00F8D836316E50081C7B707400081448B
:103DC0001375F50FB2402244A6071317750113D5DA
:103DD0009700FE04598D458D02499244410182802D
:103DE000B68721BD8147E1B7B7078000FD1733F7DC
:103DF000A7005D81ED8F1375F50FDD819306F00F40
:103E000093F5F50F6314D500054501EB1307F00F8B
:103E100001456394E5003335F00082803706800069
:103E2000135775019307F6FF1377F70F9305E00714
:103E3000E98F9356F50163F1E5049305D00963F822
:103E4000E500370500801345F5FF3695828033E5A0
:103E5000C7009307500963DAE7001307A7F6331585
:103E6000E50081CE3305A040828093076009338747
:103E7000E7403355E500F5B701458280411106C69C
:103E800022C426C2AA8745C91357F5413344A70067
:103E9000198C9354F501228597000000E780800F6C
:103EA0009307E009898F130760096346F7022147EA
:103EB0006355A70061153314A400260493F7F70F88
:103EC000DE0725801395F4015D8C418DB2402244BC
:103ED00092444101828013079009635DF700154702
:103EE000098F9306B5013357E4003314D4003334FB
:103EF0008000598C15476356A7001307B5FF33148C
:103F0000E400370700FC7D1793767400618F91C63B
:103F10003D8891466303D40011079316570063D977
:103F20000600B70700FCFD177D8F9307F009898F06
:103F30001354370059B78144014441B701CE930768
:103F40000002918F6349F000130506FE014733D547
:103F5000A500BA85828033D7C5003355C500B39517
:103F6000F5004D8DFDB701CE93070002918F634997
:103F7000F000930506FE0147B315B5003A8582802F
:103F80003317C500B395C5003355F500C98DFDB78E
:103F9000C1676376F5029307F00FB3B7A7008E07EA
:103FA000130700021D8FB357F50017D5FFFF130548
:103FB000E5A4AA9703C507003305A7408280370709
:103FC0000001C147E36EE5FCE147D9BFAA85814600
:103FD00001460145170300006700431597C7FF1707
:103FE0009387870888438280411122C406C69707B9
:103FF00000009387671C2A8491C7814597000000C1
:10400000E780801B970700009387C72A88431C55C9
:1040100091C38297228597D0FFFFE780202341112B
:10402000970700009387472922C417040000130450
:10403000A4281D8C26C206C60984BE8411E4B240A1
:1040400022449244410182807D1493172400A69754
:104050009C438297E5B74111970700009387C725D6
:1040600022C417040000130424251D8C26C24AC054
:1040700006C6098481443E8963968402970700003E
:104080009387872317040000130404231D8C0984DD
:1040900081443E89639F8400B24022449244024995
:1040A0004101828093972400CA979C43850482979C
:1040B000E1B793972400CA979C4385048297D9BFA0
:1040C0002A8309CA83830500230073007D16050334
:1040D00085056DFA828097C7FF179387E7F8B28648
:1040E0002E86AA85884317030000670083004111CC
:1040F00022C42A842E85B285368697C7FF1723A34C
:10410000074206C697000000E7808017FD57631935
:10411000F50097C7FF179387E7409C4391C31CC0E6
:10412000B24022444101828097C7FF17938707F569
:104130009C432A8E8DE717C7FF171307673497C76D
:10414000FF1723ADE7F217C5FFF71305A5EBBA87F5
:1041500019C51C4117C5FF172328F53ABA87D8435C
:104160007D487D556347E804630E0E0203A8870867
:104170006301080493182700C29823A0C8000323F2
:10418000081005463316E6003363C3002320681089
:1041900023A0D80889466317DE0083264810558E71
:1041A0002322C810930617000A07D4C3BA978CC7F6
:1041B00001458280797152CC56CA5AC85EC606D66D
:1041C00022D426D24AD04ECE62C42A8B2E8A97CAD7
:1041D000FF17938AAAEA854B03A40A0011C844403A
:1041E000832984081389F4FF8A04A294635E09007A
:1041F000B250225492540259F249624AD24A424B76
:10420000B24B224C45618280630E0A00639509001F
:104210007D19F114E1BF93172900CE9783A70708F2
:10422000E39847FF5840DC407D176318270323229B
:104230002401F9DF032C44006388090083A60910D8
:1042400033972B01F98E89EE8297584083A70A0095
:10425000E31487F9E30EF4FA41B723A20400D1BFB7
:1042600093162900CE968C4283A64910758F01E7DC
:104270005A858297D9BF2E858297C1BF411106C644
:1042800022C481460147814793080004730000005F
:104290002A84635A05003304804097000000E780B9
:1042A00020D400C17D542285B24022444101828045
:0442B00000000020EA
:1042B40000000000000000000000000000000000FA
:1042C40000000000000000000000000000000000EA
:1042D40000000000000000000000000000000000DA
:1042E40000000000000000000000000000000000CA
:1042F40000000000000000000000000000000000BA
:1043040000000000000000000000000000000000A9
:0843140000F36F060000002019
:040000050800015C92
:00000001FF
