:020000040800F2
:10000000B1AA010000000000000000000000000094
:1000100000000000000000000000000000000000E0
:1000200000000000000000000000000000000000D0
:1000300000000000000000000000000000000000C0
:1000400000000000000000000000000000000000B0
:1000500000000000000000000000000000000000A0
:100060000000000000000000000000000000000090
:100070000000000000000000000000000000000080
:100080000000000000000000000000000000000070
:100090000000000000000000000000000000000060
:1000A0000000000000000000000000000000000050
:1000B0000000000000000000000000000000000040
:1000C0000000000000000000000000000000000030
:1000D0000000000000000000000000000000000020
:1000E0000000000000000000000000000000000010
:1000F0000000000000000000000000000000000000
:1001000000000000000000000000000000000000EF
:1001100000000000000000000000000000000000DF
:1001200000000000000000000000000000000000CF
:1001300000000000000000000000000000000000BF
:1001400000000000000000000000000000000000AF
:100150000000000000000000000000007370043088
:10016000170500001305C5FF8545F605637BB5003F
:1001700089816378B500170500001305C5002E9529
:1001800002859302002073A0027D970200009382F3
:1001900062E773907230971200009382E246739088
:1001A000C27E73E0C07E971200009382A23D7390DE
:1001B0005230970100189381E16A178100181301EA
:1001C00061E417350000130525B8970500189385DD
:1001D00065E317060018130666E963FAC500832273
:1001E000050023A0550011059105E3EAC5FE17059A
:1001F00000181305A5E7970500189385A5326377C6
:10020000B500232005001105E36DB5FE73F0023241
:10021000173500001305258997300000E7804084DA
:1002200097300000E780A08B97100000E78060A463
:100230000145814597000000E780C0251733000085
:100240006700038301A073E00232828073F0023200
:0402500082800000A8
:100280000000000000000000010203040607080946
:100290000A50726F6772616D2068617320657869BA
:1002A000746564207769746820636F64653A000040
:1002B000307800006E6D690A000000007472617091
:1002C0000A00000000000000000000000040AF40F5
:1002D00000001243000020420000A042C8180000A5
:1002E000181800001E18000018180000BA180000A6
:1002F000181800001E180000C8180000C8180000D8
:10030000BA1800001E180000FE170000FE170000BB
:10031000FE17000022180000CE1C0000CE1C0000BA
:10032000E61C0000C81C0000C81C0000741D000072
:10033000E61C0000C81C0000741D0000C81C000062
:10034000E61C0000C61C0000C61C0000C61C000005
:10035000741D0000422400006C240000942400005E
:100360006C240000E02400006C24000094240000B1
:100370004224000042240000E024000094240000F5
:100380005424000054240000542400009824000049
:10039000000102020303030304040404040404042C
:1003A00005050505050505050505050505050505FD
:1003B00006060606060606060606060606060606DD
:1003C00006060606060606060606060606060606CD
:1003D00007070707070707070707070707070707AD
:1003E000070707070707070707070707070707079D
:1003F000070707070707070707070707070707078D
:10040000070707070707070707070707070707077C
:10041000080808080808080808080808080808085C
:10042000080808080808080808080808080808084C
:10043000080808080808080808080808080808083C
:10044000080808080808080808080808080808082C
:10045000080808080808080808080808080808081C
:10046000080808080808080808080808080808080C
:1004700008080808080808080808080808080808FC
:1004800008080808080808080808080808080808EC
:100490001D711305306086CEA6CACAC8CEC6D2C4A6
:1004A000D6C2DAC05EDE62DCA2CC97000000E78034
:1004B000203E1305507197000000E780603D37151E
:1004C00001409306000C0D46F145130505C0970049
:1004D0000000E780E01337550040130505409710F2
:1004E0000000E780E0AD4810B70900089710000051
:1004F000E780C001370A000883A4092D37090008E6
:10050000032C4A2D032B892DA68BA68A2808971029
:100510000000E780A0FF0255930500001304007E51
:1005200097200000E7800032635505004164130402
:100530000480FD467146930580021305000597105F
:100540000000E780E0D71255A68597200000E780DD
:10055000000AE28597200000E78040D8972000003D
:10056000E780C0352AC62255DE8597200000E78047
:100570000008DA8597200000E78040D69720000029
:10058000E780C033B2462A860147930580021305EF
:10059000000597100000E78060C86245D685972067
:1005A0000000E780C00483254A2D97200000E780E3
:1005B000E0D297200000E780603083A5092D2AC68D
:1005C000724597200000E78080028325892D9720BF
:1005D0000000E780A0D097200000E780202EB246E0
:1005E00022872A86930580021305000597100000D4
:1005F000E780C0C231462C08481097200000E780F1
:10060000A05497100000E780C0AB09B793F705012D
:1006100093F8F50099C3B3E8C8008147054EBD4E75
:10062000130F8002930F800421433316FE00758E52
:100630001DC213972700832205003398EE0013484C
:10064000F8FF337858003397E80033670701639960
:10065000E50550C918C18507E39967FC054EBD4EF5
:10066000130F8002930F800441433316FE00758EF2
:1006700005C6139727000117832245003398EE0023
:100680001348F8FF337858003397E80033670701C1
:10069000639CE50150C958C18507E39867FC8280D7
:1006A000E39AF5FB10C97DB7E397F5FF10C9E5B7ED
:1006B0000CC982804CC98280011122CC2A84094550
:1006C00026CA32C606CEAE8497000000E780C01D61
:1006D000B7470F00B7063803938707249386F6972A
:1006E0003357F50232469307600363E3A600BA87E7
:1006F000544093F606FCDD8E54C0E1669386066A8C
:1007000063E1960493071700130750036376F7001D
:10071000930760031CD029A00947E36DF7FE18D0AA
:100720008604335595025C4C11476373E50011450F
:10073000520551815D8D48CCF2406244D24405613E
:10074000828037270600130707A8636C97041307F6
:10075000C012B387E7021307803EB3D7E7028507CD
:100760001CD01DE68D47B384F4025C4C71777D1775
:10077000F98F335595025CCC9317450199E31365C6
:1007800015005C4C2167D98F5CCC444C458D65B716
:10079000E547B384F4025C4C1167D98F3355950259
:1007A000D9BF13078007B387E7021307803EB3D78B
:1007B000E70285071CD00DEA8D45B384B4025C4C7A
:1007C00071777D17F98F335595025CCC5C4C2167AE
:1007D000D98F5CCC444C458D48CC8327040993E7E2
:1007E00017002328F40889BFE545B384B4025C4CA4
:1007F0001167D98F33559502C9BF85476397F500B7
:100800001C4193E707401CC182801C4193F7F7BF4E
:10081000DDBF795793E715006314E60093F7E5FF12
:100820001CC982801C4193E717001CC182801C41B7
:1008300093E707101CC182801C4193E707201CC16D
:1008400082800CC9828008491375F50F828093D786
:10085000650093F7F73F3E9508413355B50005898C
:100860008280930710506395F5005C491C4D82808F
:1008700013D765001377F73F3A9518418547B3972B
:10088000B70093C7F7FFF98F1CC18280B7170240EA
:10089000135765003E9714438547B397A700D58F3C
:1008A0001CC382807971B705000822D441462A848E
:1008B00093850528080806D697200000E780C02801
:1008C000B70703049387172002C03EC202C43EC686
:1008D000371702405C43894689838D8B6397D70E17
:1008E0005C439396F70063D606065C579396F70031
:1008F00063DC06045C57585791832183BD8B3D8B85
:10090000938617000907C5476313F7005147B717C8
:100910007A0093870720B3D7D702B387E702371748
:10092000024058573D8B050733D7E702B716024000
:10093000DC42D442C98313962600BD8B6350060265
:1009400093E7070185070DA0B7177A009387072063
:10095000F9B7B7173D0013870790C9BFBD46E383BA
:10096000D7FE8907638DD704B387E702B716024025
:10097000D842101011833D8B3297034507FFD842B0
:1009800033D5A70021831D8B3297034607FED8423B
:1009900014102D831D8B36978546034787FE630C05
:1009A000D40005CC89476307F4028D473355E50031
:1009B0006303F4000145B250225445618280994797
:1009C000B307F7020583BA9755B7B7177A0093872D
:1009D000072069BF3355C500F9BF3E85E9BF4CC547
:1009E000828008456D8D3335A0008280B7170240A4
:1009F0009843B706FFE0B1061367170098C3D843C2
:100A0000758FD8C39843B706F7FEFD16758F98C348
:100A10009843B706FCFFFD16758F98C3D843B706F9
:100A200001DFFD16758FD8C323A607029843B706CA
:100A3000F7EAFD16758F98C33707FF0098C79443F0
:100A40004167D98E94C39307F7FF371702401443C9
:100A50001396E60063440600FD17F5FBB717024046
:100A600098439316E70063C3060001A0D843B70676
:100A7000C4DFFD16D8C3D843D8C3D8431367074093
:100A8000D8C3D843758FD8C3D843B7062920558F0C
:100A9000D8C3D857BD76758FD8D7D857C166938637
:100AA00016F1558FD8D79843B7060004558F98C3D1
:100AB000B7170240984393164700E3DD06FE9843BC
:100AC000B7060010558F98C3B71702409843931686
:100AD0002700E3DD06FE9843B7060001558F98C353
:100AE000B7170240984393166700E3DD06FED8432C
:100AF000719BD8C3D84313672700D8C33717024068
:100B00005C43A18BF5DF82807971B705000822D4A0
:100B10007D462A84938505290A8506D697200000FC
:100B2000E780800279468A85094597200000E780A2
:100B30000003A285094597000000E780E001B705A2
:100B4000000805469385052C094597200000E7809D
:100B5000000101A079714ECEAE89B70500080946A3
:100B60009385052B22D426D24AD052CC56CA06D61B
:100B70002A89714497200000E78060FE3D4AA54A1B
:100B8000F154B3178A00B3F73701B3D7870093F74F
:100B9000F70F63ECFA029387070393F7F70F054605
:100BA0009305F1004A857114A307F1009720000016
:100BB000E780E0FAE31794FCB250225492540259B1
:100BC000F249624AD24A4561828093877703F1B73E
:100BD000B70700D1D8438843CC43E39DE5FE82802C
:100BE000B70700D223800700A38507001205B717B7
:100BF00000D23E9563E3A700828023A00700C107CF
:100C0000D5BFF327503093F707FC93E73700739075
:100C100057308280B7050008411115469385452B52
:100C2000054506C697200000E78060F3054597005C
:100C30000000E780A0ED41119347F5FF22C406C6EE
:100C4000139747012A8409E797000000E780C0FC5A
:100C5000B705000815469385C52B0545972000006C
:100C6000E780E0EF228597000000E78020EA41114D
:100C700006C697000000E780A0D71305700597000F
:100C80000000E78020F697000000E780C0F7B24040
:100C9000410117F3FFFF6700435B828079714AD0FF
:100CA0004ECE5AC806D622D426D252CC56CA5EC6DA
:100CB00062C466C22A8B97000000E780A0F1AA896F
:100CC0002E8997000000E780E0F0AA842E846394C8
:100CD000A900E308B9FEB707000803A9872C83A978
:100CE000C72CB70B002097000000E780A0EEAA8772
:100CF000058DB3B7A700818D9D8D97100000E7800B
:100D000080472A8A03A50B06AE8A97100000E78069
:100D100020414A86CE8697100000E78000962A8CF4
:100D20005A85AE8C97100000E78080382A86AE8600
:100D30006285E68597100000E780C0F22A86AE86BD
:100D40005285D68597100000E78080E7E34D05F8CF
:100D5000B250225492540259F249624AD24A424B4A
:100D6000B24B224C924C45618280011122CC004151
:100D700026CA4AC822854EC652C406CEAE84328ADE
:100D80003689BA8997000000E780A0AA9305005031
:100D9000228597000000E780C0AB6DD986047956A4
:100DA000A685228597000000E780E0A693051050F5
:100DB000228597000000E780C0A96DD993051050E7
:100DC000228597000000E78000AA930570502285D5
:100DD00097000000E780E0A76DD9D28522859700B3
:100DE0000000E78040A69305705022859700000020
:100DF000E78020A66DD9228597000000E78060A3D8
:100E000093050050228597000000E78080A46DD9EB
:100E10000546A685228597000000E780C09F9305C0
:100E20001050228597000000E780A0A26DD993059D
:100E30001050228597000000E780E0A285452285BA
:100E400097000000E780A09B8144130AF9FF63C369
:100E50002403228597000000E780409E1C4093F702
:100E60000720EDFFF2406244D2444249B249224A8F
:100E70000561828063189A008145228597000000F1
:100E8000E780E09793056050228597000000E78097
:100E9000409C6DD9228597000000E780009BB387B6
:100EA00099002380A70085045DB7011122CC004181
:100EB00026CA4AC84EC652C406CE2E8AB284368985
:100EC000BA8993051060228597000000E78060983A
:100ED0006DF9228597000000E780A09593050050EA
:100EE000228597000000E780C0966DD9795693154A
:100EF0001A00228597000000E780E09193051050CA
:100F0000228597000000E780C0946DD993051050AA
:100F1000228597000000E780009593057050228598
:100F200097000000E780E0926DD9A68522859700A2
:100F30000000E780409193057050228597000000E3
:100F4000E78020916DD9814463C3240322859700F3
:100F50000000E780A08E1C4093F70720EDFFF240D1
:100F60006244D2444249B249224A05618280B38731
:100F7000990083C50700228597000000E780A08CB8
:100F800093057050228597000000E780808C6DD912
:100F900085045DBFE165411101469385056A22C460
:100FA00006C62A8497F0FFFFE7804071228522441D
:100FB000B24041011703000067000387411122C4BA
:100FC0003704002006C62322A45097000000E780C3
:100FD000A0FC930644502244B24037160008B715CF
:100FE0000008371500081306C6C99385A5EA13053E
:100FF000A5D64101170300006700E33E411122C45A
:10100000B7070020370400200327C40683A707077B
:1010100006C626C2630AF70837450040894513050E
:10102000058097000000E780009C2DC58965371575
:10103000014097F0FFFFE78020681304C4061440C6
:10104000B7070020138787078A06369714431307CC
:10105000F00F93848707A165371501406351D704CA
:1010600097F0FFFFE78000651C40374500401305FF
:101070000580138717008A07A69783C5070018C045
:1010800097000000E780E0951C4013070010B3E7CD
:10109000E7021CC0B240224492444101828097F092
:1010A000FFFFE7806061C9B72244B240924489657E
:1010B00037150140410117F3FFFF6700A35F41119E
:1010C00022C426C206C6B70400203704002003A7A6
:1010D000C406832704076317F700B24022449244F2
:1010E0004101828097000000E78080F1CDB70111B7
:1010F00022CC26CA4AC806CE370900209304001025
:1011000037040020130609071C428326C4061387F0
:101110001700336797026301D70293962700B7073A
:101120000020F240624493878707B69788C318C2AD
:10113000D2444249056182802AC697000000E780B8
:1011400020EC3245C1B7411122C42A842185130500
:10115000051006C697000000E780A0F91375F40F8C
:101160002244B24013050510410117030000670037
:1011700043F8011122CC26CA37040020AA841305A3
:10118000A00206CE36C22EC61304840632C49700CF
:101190000000E78000F60345240026959700000034
:1011A000E780A0FA2246034524003295970000000C
:1011B000E780A0F91305B00297000000E78060F314
:1011C000B245034534002E9597000000E780E0F714
:1011D000034534009246369597000000E780E0F61C
:1011E0006244F240D2441305C002056117030000B7
:1011F000670023F0411122C4AE8632842A8606C6D7
:1012000097000000E78020F722852244B240410188
:1012100017030000670063F3397122DC26DA4AD82D
:101220004ED662CC06DE52D456D25AD05ECE66CAB4
:101230006AC83304A640B384B6402A89AE89054CF7
:1012400063478000014C01C4330480407D5C854CC1
:1012500063479000814C81C4B3049040FD5C228AB6
:1012600063539400268A014B814A814B130D1A0067
:101270003A86CE854A853AC6A29A97000000E78052
:10128000A0F7269B324763555A01B38A4A416299B7
:1012900063556A01330B4B41E699850BE3EAABFDDD
:1012A000F2506254D2544259B259225A925A025BB5
:1012B000F24B624CD24C424D216182803307C60210
:1012C0005D71A2C4A6C2CAC05ED662D486C64EDE16
:1012D00052DC56DA5AD866D26AD06ECEAA8B2E8CE1
:1012E000368932848144B3099C40B38A8B40CE85D1
:1012F0004A8656853AC6330D740197000000E78090
:10130000A0EFCE854A866A8597000000E780C0EE90
:10131000338A9B40330B840152854A86DA859700D5
:101320000000E78060EDB30C8C405285939D140063
:101330004A86E68597000000E78000ECEE994A8631
:10134000CE856A8597000000E78000EB6E9A4A869A
:10135000E685528597000000E78000EA4A86DA8534
:10136000528597000000E78020E94A86CE855685A1
:1013700097000000E78040E88504B3879402324775
:10138000B3068402B6976353F7007D14E35D94F4CB
:10139000B640264496440649F259625AD25A425BF4
:1013A000B25B225C925C025DF24D61618280B707A4
:1013B000002093878750328703A307002A86C847F7
:1013C000AE86930590060283B70700209387875067
:1013D000328703A347002A86C847AE869305900646
:1013E0000283011122CC370400209307845006CEDB
:1013F00088C3CCC390C71305500730008545D4C7B8
:1014000097000000E780E0FA03478100C5477D555B
:10141000631FF70C930700F81305B00670008545AD
:101420002306F1001304845097000000E78000FABF
:101430001C441305400682978307810063CD070A89
:101440001C441305400609448297A5477000854552
:101450001305B0062306F10097000000E78000F7AF
:101460007000854565452306010097000000E78070
:10147000E0F570008545694523068100970000006E
:10148000E780C0F4E147700085456D452306F10013
:1014900097000000E78080F3C147700085457145E3
:1014A0002306F10097000000E78040F270008545B8
:1014B00075452306810097000000E78020F193071F
:1014C000200370008545130570032306F100970083
:1014D0000000E780A0EF8547130580037000854575
:1014E0002306F10097000000E78040EE0545F2403A
:1014F000624405618280300085451305B00697007F
:101500000000E78000EB0DBF011122CC30002A84DF
:1015100099451305B00306CE97000000E78060E907
:1015200083178100A303F100A1832303F1000315B6
:10153000610097100000E780A03D8317A10008C05C
:10154000A303F100A1832303F100031561009710A9
:101550000000E780E03B8317C10048C0A303F1000F
:10156000A1832303F1000315610097100000E780B9
:10157000203A08C4F24062440545056182800000BB
:101580005D7106C012C216C41AC61EC82ACA2ECC65
:1015900032CE36D03AD23ED442D646D872DA76DC53
:1015A0007ADEFEC0F322103496C0F322003096C2D9
:1015B000F322407C96C4732520348A8597F0FFFF80
:1015C000E780A0678642739012349642739002308F
:1015D000A6427390427C82401242A2423243C243EE
:1015E0005245E245724682561257A2573258C258A7
:1015F000525EE25E725F864F6161730020300000D0
:10160000000000005D7106C012C216C41AC61EC8D2
:101610002ACA2ECC32CE36D03AD23ED442D646D882
:1016200072DA76DC7ADEFEC073D0E87E7350F97E23
:1016300073D0B97EF390D07E73700430B64273904D
:10164000427CA642739012349642739022348240B8
:101650001242A2423243C2435245E245724682568A
:101660001257A2573258C258525EE25E725F864FDE
:10167000616173002030797113D8450126D24ECEB6
:1016800052CC5AC85EC69394C50006D622D44AD01E
:1016900056CA1378F87F2A8BB28B368AB18093D9D9
:1016A000F501630408089307F07F630EF80C935A62
:1016B000D5018E04B3E49A00B70A8000B3EA54015E
:1016C00013143500130918C0014B13554A01931424
:1016D000CA001378F57FB180135AFA016308080C29
:1016E0009307F07F6301F8121395340093D7DB0161
:1016F0005D8DB7048000C98C139F3B00130518C093
:10170000814713172B005D8F7D17B94633C64901FA
:101710003308A94063EBE61097F6FFFF938646BCBB
:101720000A073697184336970287B3EAA400638600
:101730000A068DCC268597100000E780A02E93071F
:1017400055FF7147634BF702F54A130485FFB38ACF
:10175000FA40B3948400B35A5B01B3EA9A0033149D
:101760008B001308D0C03309A840B9BF9710000000
:10177000E780402B13050502D9B7930485FDB31A02
:101780009B000144F9BFB3EAA400638C0A002A84D9
:10179000A68A1309F07F0D4B0DBF01440149054B8B
:1017A0002DB701441309F07F094B05B733EF7401DE
:1017B00063040F069DC8268597100000E7808026E9
:1017C000930755FF7147634AF7027547130F85FF6B
:1017D0001D8FB394E40133D7EB00D98C339FEB0119
:1017E0001306D0C03305A64021BF5E8597100000C8
:1017F000E780402313050502E1B7930485FDB39408
:101800009B00014FF1BF33EF7401630B0F005E8F3C
:101810001305F07F8D47F5B5814401458547D5B562
:1018200081441305F07F8947E9BD63E65401639362
:101830009A2A6361E42B9396FA01135714009317C5
:10184000F40193DA1A0033E4E6001395840093540C
:101850008F01458D135E0501B3D8CA03131305012B
:10186000135303011357040193158F00B3F4CA03F4
:10187000C68FB3061303939A040133675701637C41
:10188000D7002A97938FF8FF6367A7006375D70087
:10189000938FE8FF2A97158FB35EC70342044180F8
:1018A0003377C703F686B308D3034207418F637CBF
:1018B00017012A979386FEFF6367A70063751701D8
:1018C0009386EEFF2A97C20FB3EFDF00C1663304A1
:1018D00017419388F6FF13DF0F0133F71F0193DEE3
:1018E0000501B3F81501B3031703B3041F033387CE
:1018F000EE02B302DF03330F970013D703017A9789
:1019000063739700B692135F0701169FC162FD12C1
:10191000B3765700C206B3F353009E966367E401A3
:10192000FE84631EE40363FCD702AE9733B7B700AF
:101930002A973A949384FFFF6366850063118502BA
:1019400063EFB7006366E401631B8F0063F9D700A0
:10195000AE9733B7B7002A979384EFFF3A94B386D4
:10196000D7403304E441B3B7D7001D8C7D5F6305D6
:10197000850E335FC40313D706013374C403B30762
:10198000E3034204598C7A87637CF4002A9413079A
:10199000FFFF6367A4006375F4001307EFFF2A9449
:1019A0001D8C335FC403C206C1823374C403FA873B
:1019B0003303E3034204558C637C64002A94930749
:1019C000FFFF6367A400637564009307EFFF2A9429
:1019D00042075D8F93170701C1833304644013539B
:1019E0000701338E1703B308130333836E02B38EDC
:1019F000FE0293570E01C69EF69763F41701C16667
:101A0000369393D807019A9841637D13B3F6670024
:101A1000C206337E6E00F29663661401631E1419CB
:101A20003A8F9DCA2A94130FF7FF6361A40263667D
:101A300014016312141963FDD50093971500B3B513
:101A4000B7002E95130FE7FF2A94BE856314140187
:101A50006384B600136F1F001307F83F6357E00A53
:101A600093777F0081CF9377FF0091466388D700FB
:101A700093064F0033BFE601FA94368F93977400B4
:101A800063D80700B70700FFFD17FD8C1307084058
:101A90009307E07F63C8E710135F3F009397D4017B
:101AA000B3E7E70113D5340032051377F77F520708
:101AB000B25022543181598D7E063367C50092544D
:101AC0000259F249624AD24A424BB24B3E85BA852C
:101AD000456182807D1881478DBB4E86D684228FDA
:101AE000DA8709476380E70C0D476386E70A0547F5
:101AF000E394E7F60145814785A85286DDB7B70430
:101B00000800014F01468D47E9BF0545198D930730
:101B10008003E3C1A7FEFD4763CAA7041308E84199
:101B2000B39704013357AF0033180F01D98F3338FF
:101B30000001B3E7070133D5A40013F7770001CF05
:101B400013F7F70091466308D70013874700B337B0
:101B5000F7003E95BA8713178500634A07041317E9
:101B6000D5018D83D98F0D8101473DBF8557998F51
:101B700093060002B3D7F40001476306D5001308AB
:101B8000E84333970401336FE701333FE001B3E7E4
:101B9000E70101455DB73705080081471307F07F6E
:101BA000014619B7014581471307F07FF5BD01458F
:101BB00081470547D5BD7A873A8F69BD13D845015E
:101BC000B7071000FD1713D746011378F87F930E5F
:101BD000F07FB3F8B7002A83F58FFD81328E13773B
:101BE000F77FFD826318D801B3EEA80063850E0667
:101BF00089450DA86316D701B3EEC700E39A0EFE20
:101C0000631D080433E5A8001335150019E35D8E44
:101C100015CE11E5638AD50085C9FD5521A0FD5576
:101C200091C2B6852E858280E34807FF6354E800A1
:101C3000F5F9E5B7E3E217FF639CF800E36E6EFC8D
:101C4000E368C3FF8145F9BF8545E9BF65FDE9B795
:101C5000E3E0F8FEC5BFE30107FB4DFF014545BFCB
:101C600079714ECE93D9450122D426D252CC56CA90
:101C70005AC89394C50006D64AD05EC693F9F97F38
:101C80002A84328BB68AB18013DAF50163810908A0
:101C90009307F07F6389F90C9357D5018E04DD8C8F
:101CA000B7078000DD8C13193500938919C0814B6B
:101CB00013D54A011394CA001375F57F318093DA66
:101CC000FA0161C59307F07F630DF5109357DB01AF
:101CD0000E045D8CB70780005D8C130515C093174B
:101CE0003B00014793962B00D98E4E95FD16B945C2
:101CF00033465A011308150063E6D51097E5FFFF38
:101D00009385C5618A06AE969442AE96828633E983
:101D1000A400630309069DC8268597100000E7808C
:101D200060D0130755FFF14763C9E702F547130970
:101D300085FF998FB3942401B357F400DD8C3319D8
:101D400024019309D0C0B389A94095B7971000002A
:101D5000E78040CD13050502E9B7930485FDB31470
:101D600094000149F9BF33E9A400630B09002A89F3
:101D70009309F07F8D4B2DBF81448149854B0DBF69
:101D800081449309F07F894B25B7B3676401B5C3DC
:101D90001DC8228597100000E780C0C8930655FF34
:101DA000F14763CAD7027547930785FF158F331430
:101DB000F4003357EB00598CB317FB001307D0C066
:101DC0003305A74039BF5A8597100000E78080C5CA
:101DD00013050502E1B7130485FD33148B00814719
:101DE000F1BFB367640191CBDA871305F07F0D472C
:101DF000D5BD014401450547F5B501441305F07F04
:101E00000947CDB5416F930EFFFF1357090193D8D2
:101E100007013379D901B3F7D701B3852803B38616
:101E20002703B30FF7023383F50193D506019A9583
:101E3000330E170363F3F5017A9E93D30501B3F5CF
:101E4000D501B3F6D601135F0401B372D401C20504
:101E5000B695B30E5702B386220333092F0333031B
:101E6000D90113D906011A993307E7036374D9011D
:101E700041631A97935E0901C169BA9E1387F9FFFE
:101E80003379E900F98E13D404014209F98C3699AB
:101E900033879702CA933303F402B3869802B38759
:101EA0008802B388660093560701C69663F36600FE
:101EB000CE9793D80601C169B38FF8009387F9FFD5
:101EC000FD8E7D8FB3889202C206BA96B307540284
:101ED000B3049F0233038F02BE9413D40801A2946B
:101EE00063F3F4004E93C167FD1733F7F400B3F8C2
:101EF000F80042071E9E469733392E017697330429
:101F00002701369EB336DE00B308F401338FD800C4
:101F10003337D70133342401598CC180B3B8F80169
:101F2000B336DF002694B3E6D80036941A9493575C
:101F30007F0126045D8C93179E00CD8FB337F00090
:101F4000135E7E0113179F00B3E7C701D98F1317E4
:101F500074006358070A13D71700858BD98F13179E
:101F6000F401D98F05809306F83F635ED00813F71C
:101F7000770001CF13F7F70091456308B700138787
:101F80004700B337F7003E94BA87131774006358BD
:101F90000700370700FF7D17798C93060840130769
:101FA000E07F634CD70E13D737009317D401D98F36
:101FB0000D80320413F7F67F52073180598C7E066C
:101FC0003367C400B250225492540259F249624A13
:101FD000D24A424BB24B3E85BA85456182805286D9
:101FE0002684CA875E8789466309D70A8D46630FB0
:101FF000D7088546E319D7F6014481479DA0568648
:10200000DDB72A888DB78545958D13078003E34595
:10201000B7FE7D476349B7041308E841331704014D
:10202000B3D6B700B3970701558FB337F000D98FF8
:102030003354B40013F7770001CF13F7F70091463C
:102040006308D70013874700B337F7003E94BA8779
:1020500013178400634807041317D4018D83D98FA5
:102060000D808146B9B70557158F13050002335708
:10207000E40081466386A5001308E843B316040113
:10208000D58FB337F000D98F01446DB737040800FE
:1020900081479306F07F014629BF0144814793069B
:1020A000F07F01BF01448147854621B7411106C633
:1020B00022C426C22DC19357F54133C4A7001D8CFD
:1020C0009354F501228597100000E780A09513072F
:1020D000E041A947098F63CAA702AD47898F55051B
:1020E000B357F4003314A4002685B2071377F77FA3
:1020F0005207B1837E05D98F33E7A700B24022850E
:1021000022449244BA85410182805515B317A40038
:1021100026850144D9BF01478147E5BF411122C44B
:1021200006C62A8421C597100000E780A08F1307F8
:10213000E041A947098F63C6A702AD47898F5505BE
:10214000B357F4003314A4002285B2402244B207EE
:102150001377F77F5207B183B3E6E700B6854101F5
:1021600082805515B317A4000144F9BF8147014788
:10217000E1BF011106CE22CC26CA4AC84EC652C4BF
:10218000B367B500638607142A842E89AE84BDC563
:102190002E8597100000E780E088AA89130AE043A3
:1021A000330A3A419307304363C74707AD47228557
:1021B00063D337039307A00263C937059305B002C1
:1021C000938759FFB3853541B355B400B314F90073
:1021D000CD8C3315F4009395C400F2406244137A19
:1021E000FA7F520AB181B3E745012A87D2444249B6
:1021F000B249224A3A85BE85056182809710000067
:10220000E78040829309050251BF938559FDB314BD
:10221000B4000145C9B79307604363D947031386E8
:1022200089032285CA8597000000E780007DC98D5B
:102230002146B334B0002285CA8533063641970063
:102240000000E780E07833E4A4002E89A1472285CE
:1022500063D437039307700263C637079305800280
:10226000938789FFB38535413319F900B355B4001D
:1022700033E925013315F400B70780FFFD17B37567
:10228000F9009377750081CF9377F5001147638844
:10229000E7009307450033B5A700AA953E859397BD
:1022A000850063DA0700B70780FFFD17130AF043C4
:1022B000FD8D330A3A410D819397D5015D8D93D4FD
:1022C000350011BF138989FD3319240101456DB70C
:1022D00081440145014A01B73707800041117D174C
:1022E000B377A70026C24AC09354F501135975016C
:1022F00013D575016D8F1379F90F1375F50F06C698
:1023000022C4FD818E070E07B306A9406392B41262
:10231000635AD00621E1630B0726FD168DE6BA97B6
:102320004A85139757006359070C05051307F00FEB
:102330006304E5263707007E93F617007D17858333
:10234000F98FD58F55A81306F00F631CC90013052C
:10235000F00F5DA01306F00FE30BC9FE3706000473
:10236000518F6D466354D600054755BF13060002D2
:10237000B355D700B306D6403317D7003337E00044
:102380004D8F71BFB9C633062541631D090089CB46
:102390007D1619E2BA9771B79306F00F631BD5004B
:1023A000BA8799A89306F00FE30CD5FEB706000490
:1023B000D58FED4663D4C6008547E9BF930600027A
:1023C000918EB3D5C700B397D700B337F000CD8F48
:1023D000D1B79306190013F5E60F39E16319090225
:1023E000E1D319CBBA971397570063570700370704
:1023F00000FC7D17F98F054513F77700630F071869
:1024000013F7F7009146630AD718910779A2638101
:10241000071815DF8144B70700021305F00FB5AAAE
:102420001306F00F6388C616BA9785833685E9B719
:102430006355D0061DE94A8561D3FD1681EE998F5B
:1024400013975700E35A07FA370400047D147D8C74
:102450002A89C5A81306F00F1305F00FE30EC9F87B
:102460006D46635ED600054735A01306F00F1305D1
:10247000F00FE303C9F837060004518FD5B71306F0
:102480000002B355D700B306D6403317D700333711
:10249000E0004D8F998F4A8565B7B9CA330625414B
:1024A0006310090299CB7D1609E6B307F740AE84A5
:1024B00041BF9306F00F631CD500BA87AE842DBFD1
:1024C0009306F00FE30BD5FEB7060004D58FED465B
:1024D00063D4C6008547D1BF93060002918E33D8DE
:1024E000C700B397D700B337F000B367F80075BFE4
:1024F000130519001375E50F05ED6314090289E74B
:102500004DFF8147814451A8E30807EEB386E740B9
:1025100013965600B307F740E34206FAFDD2B6879A
:10252000E1BDE39807EEE30707EEBA87AE8405B591
:102530003384E7409316540063DF06023304F74008
:10254000AE84228597000000E780C04D6D153314DE
:10255000A400634625033305254105051307000242
:10256000B357A4003305A7403314A40033348000CC
:10257000C18F014551B571F48147014561B7B70776
:1025800000FCFD173305A940E18FBDB54A85ADB507
:10259000BA8775BB1305F00F814713975700635B2C
:1025A000070005051307F00F630FE502370700FC6E
:1025B0007D17F98F1307F00F8D836316E50081C730
:1025C000B707400081441375F50FB2402244A607B7
:1025D0001317750113D59700FE04598D458D0249D7
:1025E0009244410182808147F1B7011126CA935478
:1025F00075014AC84EC652C49319950006CE22CC26
:1026000056C293F4F40F2E8A93D999001359F50109
:10261000B5C49307F00F6382F4088E09B70700046E
:10262000B3E9F900938414F8814A13557A0113141D
:102630009A001375F50F2580135AFA012DC99307D7
:10264000F00F6305F5080E04B70700045D8C130551
:1026500015F8814793962A00DD8EFD1639473346DB
:1026600049013385A440636CD70697E5FFFF938546
:10267000A5CE8A06AE9698422E97028763860902F7
:102680004E8597000000E780E0399307B5FF93047B
:10269000A0F8B399F900898C41BF9304F00F894ADF
:1026A000E38509F88D4A51B78144854ABDBF0DC401
:1026B000228597000000E780E0369307B5FF3314CA
:1026C000F4009307A0F83385A74061B71305F00F16
:1026D000894749D08D47BDBF01458547A5BF131820
:1026E000540063FE890A7D1581461354080133D3D3
:1026F0008902C167FD17B377F800C18233F78902F9
:102700009A85B38867024207558F637C1701429709
:102710009305F3FF63670701637517019305E3FFF3
:10272000429733071741B358870233778702B3863E
:10273000170393170701468763FCD700C2971387D7
:10274000F8FF63E7070163F5D7001387E8FFC29737
:1027500013940501958F598CB337F0005D8C1307E6
:10276000F507635AE0089377740099C79377F400EC
:1027700091466383D70011049317440063D8070080
:10278000B70700F8FD177D8C130705089307E00FC6
:102790000D8063D9E70201441307F00F25A093963B
:1027A000F90193D9190091B74A864E84D687094713
:1027B000E383E7FE0D47638FE7060547E391E7FAFA
:1027C0000144014726041377F70F5E072580598CD3
:1027D0001315F601418DF2406244D2444249B24998
:1027E000224A924A056182805286D1B7370440005E
:1027F00001468D476DBF8547998F6D47E342F7FCD2
:102800001305E509B357F4003314A40033348000F2
:102810005D8C9377740099C79377F40011476383B5
:10282000E7001104931754000D80E3DC07F801441E
:10283000054749BF370440001307F00F014659B759
:1028400093567501B7078000FD1713D7750193F6EE
:10285000F60F1308F00F33F6A7001377F70FED8F7D
:102860007D81FD816395060139C20945828063132C
:102870000701E5FF9DEE11E38DCB01CA6314B5009E
:102880006359D7000DC17D5582807D5591C52E8538
:10289000828063D4E60065D98280E3E5C7FEE36CFD
:1028A000F6FE014582800545828065DEE1BFE302D8
:1028B000D7FC69F7E1DBD9B793577501370680007C
:1028C0009306F6FF93F7F70F9305E007E98E13578A
:1028D000F501014563FBF50211E71307E0097D559A
:1028E0006373F70082801307500933E5C60063570E
:1028F000F7009387A7F63315F50082801307600968
:10290000B307F7403355F50082808280411106C637
:1029100022C426C2AA8745C91357F5413344A700EC
:10292000198C9354F501228597000000E780800FF1
:102930009307E009898F130760096346F70221476F
:102940006355A70061153314A400260493F7F70F0D
:10295000DE0725801395F4015D8C418DB240224441
:1029600092444101828013079009635DF700154787
:10297000098F9306B5013357E4003314D400333480
:102980008000598C15476356A7001307B5FF331411
:10299000E400370700FC7D1793767400618F91C6C1
:1029A0003D8891466303D40011079316570063D9FD
:1029B0000600B70700FCFD177D8F9307F009898F8C
:1029C0001354370059B78144014441B701CE9307EE
:1029D0000002918F6349F000130506FE014733D5CD
:1029E000A500BA85828033D7C5003355C500B3959D
:1029F000F5004D8DFDB701CE93070002918F63491D
:102A0000F000930506FE0147B315B5003A858280B4
:102A10003317C500B395C5003355F500C98DFDB713
:102A2000C1676376F5029307F00FB3B7A7008E076F
:102A3000130700021D8FB357F50017E5FFFF1305BD
:102A40006595AA9703C507003305A740828037071D
:102A50000001C147E36EE5FCE147D9BFAA85814685
:102A6000014601451703000067008314411122C489
:102A700006C6970700009387671C2A8491C7814583
:102A800097000000E780801B970700009387872B43
:102A900088431C5591C38297228597E0FFFFE7800A
:102AA000E0064111970700009387072A22C4170404
:102AB0000000130464291D8C26C206C60984BE8446
:102AC00011E4B24022449244410182807D14931764
:102AD0002400A6979C438297E5B741119707000011
:102AE0009387872622C4170400001304E4251D8C55
:102AF00026C24AC006C6098481443E896396840280
:102B00009707000093874724170400001304C42389
:102B10001D8C098481443E89639F8400B240224415
:102B2000924402494101828093972400CA979C43B2
:102B300085048297E1B793972400CA979C43850444
:102B40008297D9BF2A8309CA8383050023007300B3
:102B50007D16050385056DFA828097D7FF17938749
:102B6000A750B2862E86AA85884317030000670007
:102B70008300411122C42A842E85B285368697E7C8
:102B8000FF1723AD079806C697000000E78080175F
:102B9000FD576319F50097E7FF17938727989C4324
:102BA00091C31CC0B24022444101828097D7FF17D5
:102BB0009387874C9C432A8E8DE717E7FF171307EF
:102BC000E78B97D7FF1723A9E74A17D5FFF7130518
:102BD0006543BA8719C51C4117E5FF172324F592F1
:102BE000BA87D8437D487D556347E804630E0E02DB
:102BF00003A887086301080493182700C29823A03C
:102C0000C8000323081005463316E6003363C300EB
:102C10002320681023A0D80889466317DE00832686
:102C20004810558E2322C810930617000A07D4C3F4
:102C3000BA978CC701458280797152CC56CA5AC85E
:102C40005EC606D622D426D24AD04ECE62C42A8B85
:102C50002E8A97DAFF17938A2A42854B03A40A002B
:102C600011C84440832984081389F4FF8A04A2947C
:102C7000635E0900B250225492540259F249624AEA
:102C8000D24A424BB24B224C45618280630E0A000D
:102C9000639509007D19F114E1BF93172900CE97C0
:102CA00083A70708E39847FF5840DC407D17631867
:102CB000270323222401F9DF032C44006388090041
:102CC00083A6091033972B01F98E89EE829758401D
:102CD00083A70A00E31487F9E30EF4FA41B723A2AD
:102CE0000400D1BF93162900CE968C4283A64910CA
:102CF000758F01E75A858297D9BF2E858297C1BF0C
:102D0000411106C622C48146014781479308000449
:102D1000730000002A84635A050033048040970042
:102D20000000E780600100C17D542285B24022444A
:102D30004101828097D7FF179387073388438280AA
:042D4000000000206F
:102D4400000000000000000000000000000000007F
:102D5400000000000000000000000000000000006F
:102D6400000000000000000000000000000000005F
:102D7400000000000000000000000000000000004F
:102D8400000000000000000000000000000000003F
:102D9400000000000000000000000000000000002F
:082DA40000F36F06000000209F
:040000050800015C92
:00000001FF
